{
  "_format": "hh-sol-artifact-1",
  "contractName": "Swap",
  "sourceName": "contracts/Swap.sol",
  "abi": [
    {
      "inputs": [
        {
          "internalType": "address",
          "name": "_gbp",
          "type": "address"
        },
        {
          "internalType": "address",
          "name": "_btc",
          "type": "address"
        },
        {
          "internalType": "address",
          "name": "_bbtc",
          "type": "address"
        }
      ],
      "stateMutability": "nonpayable",
      "type": "constructor"
    },
    {
      "inputs": [
        {
          "internalType": "uint256",
          "name": "_amountIn",
          "type": "uint256"
        }
      ],
      "name": "swap_BBTCGBP",
      "outputs": [],
      "stateMutability": "nonpayable",
      "type": "function"
    },
    {
      "inputs": [
        {
          "internalType": "uint256",
          "name": "_amountIn",
          "type": "uint256"
        }
      ],
      "name": "swap_BTCBBTC",
      "outputs": [],
      "stateMutability": "nonpayable",
      "type": "function"
    },
    {
      "inputs": [
        {
          "internalType": "uint256",
          "name": "_amountIn",
          "type": "uint256"
        }
      ],
      "name": "swap_GBPBBTC",
      "outputs": [],
      "stateMutability": "nonpayable",
      "type": "function"
    }
  ],
  "bytecode": "0x60806040523480156200001157600080fd5b506040516200117738038062001177833981810160405281019062000037919062000119565b826000806101000a81548173ffffffffffffffffffffffffffffffffffffffff021916908373ffffffffffffffffffffffffffffffffffffffff16021790555081600160006101000a81548173ffffffffffffffffffffffffffffffffffffffff021916908373ffffffffffffffffffffffffffffffffffffffff16021790555080600260006101000a81548173ffffffffffffffffffffffffffffffffffffffff021916908373ffffffffffffffffffffffffffffffffffffffff160217905550505050620001bd565b6000815190506200011381620001a3565b92915050565b6000806000606084860312156200012f57600080fd5b60006200013f8682870162000102565b9350506020620001528682870162000102565b9250506040620001658682870162000102565b9150509250925092565b60006200017c8262000183565b9050919050565b600073ffffffffffffffffffffffffffffffffffffffff82169050919050565b620001ae816200016f565b8114620001ba57600080fd5b50565b610faa80620001cd6000396000f3fe608060405234801561001057600080fd5b50600436106100415760003560e01c80632bbfff1614610046578063350819ca14610062578063797c21ff1461007e575b600080fd5b610060600480360381019061005b9190610afd565b61009a565b005b61007c60048036038101906100779190610afd565b6103df565b005b61009860048036038101906100939190610afd565b61073a565b005b80600160009054906101000a900473ffffffffffffffffffffffffffffffffffffffff1673ffffffffffffffffffffffffffffffffffffffff166370a08231336040518263ffffffff1660e01b81526004016100f69190610c1c565b60206040518083038186803b15801561010e57600080fd5b505afa158015610122573d6000803e3d6000fd5b505050506040513d601f19601f820116820180604052508101906101469190610b26565b1015610187576040517f08c379a000000000000000000000000000000000000000000000000000000000815260040161017e90610c97565b60405180910390fd5b600081905080600260009054906101000a900473ffffffffffffffffffffffffffffffffffffffff1673ffffffffffffffffffffffffffffffffffffffff166370a08231306040518263ffffffff1660e01b81526004016101e89190610c1c565b60206040518083038186803b15801561020057600080fd5b505afa158015610214573d6000803e3d6000fd5b505050506040513d601f19601f820116820180604052508101906102389190610b26565b1015610279576040517f08c379a000000000000000000000000000000000000000000000000000000000815260040161027090610cd7565b60405180910390fd5b600160009054906101000a900473ffffffffffffffffffffffffffffffffffffffff1673ffffffffffffffffffffffffffffffffffffffff166323b872dd3330856040518463ffffffff1660e01b81526004016102d893929190610c37565b602060405180830381600087803b1580156102f257600080fd5b505af1158015610306573d6000803e3d6000fd5b505050506040513d601f19601f8201168201806040525081019061032a9190610ad4565b50600260009054906101000a900473ffffffffffffffffffffffffffffffffffffffff1673ffffffffffffffffffffffffffffffffffffffff1663a9059cbb33836040518363ffffffff1660e01b8152600401610388929190610c6e565b602060405180830381600087803b1580156103a257600080fd5b505af11580156103b6573d6000803e3d6000fd5b505050506040513d601f19601f820116820180604052508101906103da9190610ad4565b505050565b8060008054906101000a900473ffffffffffffffffffffffffffffffffffffffff1673ffffffffffffffffffffffffffffffffffffffff166370a08231336040518263ffffffff1660e01b81526004016104399190610c1c565b60206040518083038186803b15801561045157600080fd5b505afa158015610465573d6000803e3d6000fd5b505050506040513d601f19601f820116820180604052508101906104899190610b26565b10156104ca576040517f08c379a00000000000000000000000000000000000000000000000000000000081526004016104c190610cf7565b60405180910390fd5b6000620186a06006836104dd9190610d79565b6104e79190610d48565b905080600260009054906101000a900473ffffffffffffffffffffffffffffffffffffffff1673ffffffffffffffffffffffffffffffffffffffff166370a08231306040518263ffffffff1660e01b81526004016105459190610c1c565b60206040518083038186803b15801561055d57600080fd5b505afa158015610571573d6000803e3d6000fd5b505050506040513d601f19601f820116820180604052508101906105959190610b26565b10156105d6576040517f08c379a00000000000000000000000000000000000000000000000000000000081526004016105cd90610cd7565b60405180910390fd5b60008054906101000a900473ffffffffffffffffffffffffffffffffffffffff1673ffffffffffffffffffffffffffffffffffffffff166323b872dd3330856040518463ffffffff1660e01b815260040161063393929190610c37565b602060405180830381600087803b15801561064d57600080fd5b505af1158015610661573d6000803e3d6000fd5b505050506040513d601f19601f820116820180604052508101906106859190610ad4565b50600260009054906101000a900473ffffffffffffffffffffffffffffffffffffffff1673ffffffffffffffffffffffffffffffffffffffff1663a9059cbb33836040518363ffffffff1660e01b81526004016106e3929190610c6e565b602060405180830381600087803b1580156106fd57600080fd5b505af1158015610711573d6000803e3d6000fd5b505050506040513d601f19601f820116820180604052508101906107359190610ad4565b505050565b80600260009054906101000a900473ffffffffffffffffffffffffffffffffffffffff1673ffffffffffffffffffffffffffffffffffffffff166370a08231336040518263ffffffff1660e01b81526004016107969190610c1c565b60206040518083038186803b1580156107ae57600080fd5b505afa1580156107c2573d6000803e3d6000fd5b505050506040513d601f19601f820116820180604052508101906107e69190610b26565b1015610827576040517f08c379a000000000000000000000000000000000000000000000000000000000815260040161081e90610cb7565b60405180910390fd5b60006064621a4c1b8361083a9190610d79565b6108449190610d48565b90508060008054906101000a900473ffffffffffffffffffffffffffffffffffffffff1673ffffffffffffffffffffffffffffffffffffffff166370a08231306040518263ffffffff1660e01b81526004016108a09190610c1c565b60206040518083038186803b1580156108b857600080fd5b505afa1580156108cc573d6000803e3d6000fd5b505050506040513d601f19601f820116820180604052508101906108f09190610b26565b1015610931576040517f08c379a000000000000000000000000000000000000000000000000000000000815260040161092890610d17565b60405180910390fd5b600260009054906101000a900473ffffffffffffffffffffffffffffffffffffffff1673ffffffffffffffffffffffffffffffffffffffff166323b872dd3330856040518463ffffffff1660e01b815260040161099093929190610c37565b602060405180830381600087803b1580156109aa57600080fd5b505af11580156109be573d6000803e3d6000fd5b505050506040513d601f19601f820116820180604052508101906109e29190610ad4565b5060008054906101000a900473ffffffffffffffffffffffffffffffffffffffff1673ffffffffffffffffffffffffffffffffffffffff1663a9059cbb33836040518363ffffffff1660e01b8152600401610a3e929190610c6e565b602060405180830381600087803b158015610a5857600080fd5b505af1158015610a6c573d6000803e3d6000fd5b505050506040513d601f19601f82011682018060405250810190610a909190610ad4565b505050565b600081519050610aa481610f46565b92915050565b600081359050610ab981610f5d565b92915050565b600081519050610ace81610f5d565b92915050565b600060208284031215610ae657600080fd5b6000610af484828501610a95565b91505092915050565b600060208284031215610b0f57600080fd5b6000610b1d84828501610aaa565b91505092915050565b600060208284031215610b3857600080fd5b6000610b4684828501610abf565b91505092915050565b610b5881610dd3565b82525050565b6000610b6b601e83610d37565b9150610b7682610e79565b602082019050919050565b6000610b8e601f83610d37565b9150610b9982610ea2565b602082019050919050565b6000610bb1601f83610d37565b9150610bbc82610ecb565b602082019050919050565b6000610bd4601e83610d37565b9150610bdf82610ef4565b602082019050919050565b6000610bf7601e83610d37565b9150610c0282610f1d565b602082019050919050565b610c1681610e11565b82525050565b6000602082019050610c316000830184610b4f565b92915050565b6000606082019050610c4c6000830186610b4f565b610c596020830185610b4f565b610c666040830184610c0d565b949350505050565b6000604082019050610c836000830185610b4f565b610c906020830184610c0d565b9392505050565b60006020820190508181036000830152610cb081610b5e565b9050919050565b60006020820190508181036000830152610cd081610b81565b9050919050565b60006020820190508181036000830152610cf081610ba4565b9050919050565b60006020820190508181036000830152610d1081610bc7565b9050919050565b60006020820190508181036000830152610d3081610bea565b9050919050565b600082825260208201905092915050565b6000610d5382610e11565b9150610d5e83610e11565b925082610d6e57610d6d610e4a565b5b828204905092915050565b6000610d8482610e11565b9150610d8f83610e11565b9250817fffffffffffffffffffffffffffffffffffffffffffffffffffffffffffffffff0483118215151615610dc857610dc7610e1b565b5b828202905092915050565b6000610dde82610df1565b9050919050565b60008115159050919050565b600073ffffffffffffffffffffffffffffffffffffffff82169050919050565b6000819050919050565b7f4e487b7100000000000000000000000000000000000000000000000000000000600052601160045260246000fd5b7f4e487b7100000000000000000000000000000000000000000000000000000000600052601260045260246000fd5b7f596f7572204254432062616c616e6365206973206e6f7420656e6f7567680000600082015250565b7f596f757220424254432062616c616e6365206973206e6f7420656e6f75676800600082015250565b7f4242544320506f6f6c20686173206e6f7420656e6f75676820616d6f756e7400600082015250565b7f596f7572204742502062616c616e6365206973206e6f7420656e6f7567680000600082015250565b7f47425020506f6f6c20686173206e6f7420656e6f75676820616d6f756e740000600082015250565b610f4f81610de5565b8114610f5a57600080fd5b50565b610f6681610e11565b8114610f7157600080fd5b5056fea2646970667358221220985b3085964b64d9b241f3678605a41fcec38ce0d6a29c404be78d9238b0cb4c64736f6c63430008040033",
  "linkReferences": {},
  "deployedLinkReferences": {}
}