{
  "_format": "hh-sol-artifact-1",
  "contractName": "QKT",
  "sourceName": "contracts/QKT.sol",
  "abi": [
    {
      "inputs": [
        {
          "internalType": "uint256",
          "name": "_amount",
          "type": "uint256"
        }
      ],
      "stateMutability": "nonpayable",
      "type": "constructor"
    },
    {
      "anonymous": false,
      "inputs": [
        {
          "indexed": true,
          "internalType": "address",
          "name": "owner",
          "type": "address"
        },
        {
          "indexed": true,
          "internalType": "address",
          "name": "spender",
          "type": "address"
        },
        {
          "indexed": false,
          "internalType": "uint256",
          "name": "value",
          "type": "uint256"
        }
      ],
      "name": "Approval",
      "type": "event"
    },
    {
      "anonymous": false,
      "inputs": [
        {
          "indexed": true,
          "internalType": "address",
          "name": "previousOwner",
          "type": "address"
        },
        {
          "indexed": true,
          "internalType": "address",
          "name": "newOwner",
          "type": "address"
        }
      ],
      "name": "OwnershipTransferred",
      "type": "event"
    },
    {
      "anonymous": false,
      "inputs": [
        {
          "indexed": true,
          "internalType": "address",
          "name": "from",
          "type": "address"
        },
        {
          "indexed": true,
          "internalType": "address",
          "name": "to",
          "type": "address"
        },
        {
          "indexed": false,
          "internalType": "uint256",
          "name": "value",
          "type": "uint256"
        }
      ],
      "name": "Transfer",
      "type": "event"
    },
    {
      "inputs": [
        {
          "internalType": "address",
          "name": "wallet",
          "type": "address"
        }
      ],
      "name": "addToLockWhitelist",
      "outputs": [],
      "stateMutability": "nonpayable",
      "type": "function"
    },
    {
      "inputs": [
        {
          "internalType": "address",
          "name": "owner",
          "type": "address"
        },
        {
          "internalType": "address",
          "name": "spender",
          "type": "address"
        }
      ],
      "name": "allowance",
      "outputs": [
        {
          "internalType": "uint256",
          "name": "",
          "type": "uint256"
        }
      ],
      "stateMutability": "view",
      "type": "function"
    },
    {
      "inputs": [
        {
          "internalType": "address",
          "name": "spender",
          "type": "address"
        },
        {
          "internalType": "uint256",
          "name": "amount",
          "type": "uint256"
        }
      ],
      "name": "approve",
      "outputs": [
        {
          "internalType": "bool",
          "name": "",
          "type": "bool"
        }
      ],
      "stateMutability": "nonpayable",
      "type": "function"
    },
    {
      "inputs": [
        {
          "internalType": "address",
          "name": "account",
          "type": "address"
        }
      ],
      "name": "balanceOf",
      "outputs": [
        {
          "internalType": "uint256",
          "name": "",
          "type": "uint256"
        }
      ],
      "stateMutability": "view",
      "type": "function"
    },
    {
      "inputs": [
        {
          "internalType": "uint256",
          "name": "amount",
          "type": "uint256"
        }
      ],
      "name": "burn",
      "outputs": [],
      "stateMutability": "nonpayable",
      "type": "function"
    },
    {
      "inputs": [
        {
          "internalType": "address",
          "name": "account",
          "type": "address"
        },
        {
          "internalType": "uint256",
          "name": "amount",
          "type": "uint256"
        }
      ],
      "name": "burnFrom",
      "outputs": [],
      "stateMutability": "nonpayable",
      "type": "function"
    },
    {
      "inputs": [],
      "name": "decimals",
      "outputs": [
        {
          "internalType": "uint8",
          "name": "",
          "type": "uint8"
        }
      ],
      "stateMutability": "view",
      "type": "function"
    },
    {
      "inputs": [
        {
          "internalType": "address",
          "name": "spender",
          "type": "address"
        },
        {
          "internalType": "uint256",
          "name": "subtractedValue",
          "type": "uint256"
        }
      ],
      "name": "decreaseAllowance",
      "outputs": [
        {
          "internalType": "bool",
          "name": "",
          "type": "bool"
        }
      ],
      "stateMutability": "nonpayable",
      "type": "function"
    },
    {
      "inputs": [
        {
          "internalType": "address",
          "name": "spender",
          "type": "address"
        },
        {
          "internalType": "uint256",
          "name": "addedValue",
          "type": "uint256"
        }
      ],
      "name": "increaseAllowance",
      "outputs": [
        {
          "internalType": "bool",
          "name": "",
          "type": "bool"
        }
      ],
      "stateMutability": "nonpayable",
      "type": "function"
    },
    {
      "inputs": [],
      "name": "lock",
      "outputs": [],
      "stateMutability": "nonpayable",
      "type": "function"
    },
    {
      "inputs": [
        {
          "internalType": "address",
          "name": "owner",
          "type": "address"
        }
      ],
      "name": "lockWhiteList",
      "outputs": [
        {
          "internalType": "bool",
          "name": "",
          "type": "bool"
        }
      ],
      "stateMutability": "view",
      "type": "function"
    },
    {
      "inputs": [],
      "name": "name",
      "outputs": [
        {
          "internalType": "string",
          "name": "",
          "type": "string"
        }
      ],
      "stateMutability": "view",
      "type": "function"
    },
    {
      "inputs": [],
      "name": "owner",
      "outputs": [
        {
          "internalType": "address",
          "name": "",
          "type": "address"
        }
      ],
      "stateMutability": "view",
      "type": "function"
    },
    {
      "inputs": [],
      "name": "release",
      "outputs": [],
      "stateMutability": "nonpayable",
      "type": "function"
    },
    {
      "inputs": [
        {
          "internalType": "address",
          "name": "wallet",
          "type": "address"
        }
      ],
      "name": "removeFromLockWhitelist",
      "outputs": [],
      "stateMutability": "nonpayable",
      "type": "function"
    },
    {
      "inputs": [],
      "name": "renounceOwnership",
      "outputs": [],
      "stateMutability": "nonpayable",
      "type": "function"
    },
    {
      "inputs": [],
      "name": "symbol",
      "outputs": [
        {
          "internalType": "string",
          "name": "",
          "type": "string"
        }
      ],
      "stateMutability": "view",
      "type": "function"
    },
    {
      "inputs": [],
      "name": "totalSupply",
      "outputs": [
        {
          "internalType": "uint256",
          "name": "",
          "type": "uint256"
        }
      ],
      "stateMutability": "view",
      "type": "function"
    },
    {
      "inputs": [
        {
          "internalType": "address",
          "name": "recipient",
          "type": "address"
        },
        {
          "internalType": "uint256",
          "name": "amount",
          "type": "uint256"
        }
      ],
      "name": "transfer",
      "outputs": [
        {
          "internalType": "bool",
          "name": "",
          "type": "bool"
        }
      ],
      "stateMutability": "nonpayable",
      "type": "function"
    },
    {
      "inputs": [
        {
          "internalType": "address",
          "name": "sender",
          "type": "address"
        },
        {
          "internalType": "address",
          "name": "recipient",
          "type": "address"
        },
        {
          "internalType": "uint256",
          "name": "amount",
          "type": "uint256"
        }
      ],
      "name": "transferFrom",
      "outputs": [
        {
          "internalType": "bool",
          "name": "",
          "type": "bool"
        }
      ],
      "stateMutability": "nonpayable",
      "type": "function"
    },
    {
      "inputs": [
        {
          "internalType": "address",
          "name": "newOwner",
          "type": "address"
        }
      ],
      "name": "transferOwnership",
      "outputs": [],
      "stateMutability": "nonpayable",
      "type": "function"
    }
  ],
  "bytecode": "0x60806040526001600860006101000a81548160ff0219169083151502179055503480156200002c57600080fd5b506040516200243b3803806200243b833981810160405281019062000052919062000395565b62000072620000666200020260201b60201c565b6200020a60201b60201c565b6040518060400160405280600a81526020017f537461626c65436f696e0000000000000000000000000000000000000000000081525060049080519060200190620000bf929190620002ce565b506040518060400160405280600381526020017f514b540000000000000000000000000000000000000000000000000000000000815250600590805190602001906200010d929190620002ce565b506012600660006101000a81548160ff021916908360ff160217905550806003819055508060016000620001466200020260201b60201c565b73ffffffffffffffffffffffffffffffffffffffff1673ffffffffffffffffffffffffffffffffffffffff16815260200190815260200160002081905550620001946200020260201b60201c565b73ffffffffffffffffffffffffffffffffffffffff16600073ffffffffffffffffffffffffffffffffffffffff167fddf252ad1be2c89b69c2b068fc378daa952ba7f163c4a11628f55a4df523b3ef83604051620001f39190620003d2565b60405180910390a35062000478565b600033905090565b60008060009054906101000a900473ffffffffffffffffffffffffffffffffffffffff169050816000806101000a81548173ffffffffffffffffffffffffffffffffffffffff021916908373ffffffffffffffffffffffffffffffffffffffff1602179055508173ffffffffffffffffffffffffffffffffffffffff168173ffffffffffffffffffffffffffffffffffffffff167f8be0079c531659141344cd1fd0a4f28419497f9722a3daafe3b4186f6b6457e060405160405180910390a35050565b828054620002dc90620003f9565b90600052602060002090601f0160209004810192826200030057600085556200034c565b82601f106200031b57805160ff19168380011785556200034c565b828001600101855582156200034c579182015b828111156200034b5782518255916020019190600101906200032e565b5b5090506200035b91906200035f565b5090565b5b808211156200037a57600081600090555060010162000360565b5090565b6000815190506200038f816200045e565b92915050565b600060208284031215620003a857600080fd5b6000620003b8848285016200037e565b91505092915050565b620003cc81620003ef565b82525050565b6000602082019050620003e96000830184620003c1565b92915050565b6000819050919050565b600060028204905060018216806200041257607f821691505b602082108114156200042957620004286200042f565b5b50919050565b7f4e487b7100000000000000000000000000000000000000000000000000000000600052602260045260246000fd5b6200046981620003ef565b81146200047557600080fd5b50565b611fb380620004886000396000f3fe608060405234801561001057600080fd5b50600436106101375760003560e01c80637a0adffc116100b8578063a9059cbb1161007c578063a9059cbb1461032a578063c500d2801461035a578063d239786114610376578063dd62ed3e146103a6578063f2fde38b146103d6578063f83d08ba146103f257610137565b80637a0adffc1461029857806386d1a69f146102b45780638da5cb5b146102be57806395d89b41146102dc578063a457c2d7146102fa57610137565b806339509351116100ff57806339509351146101f657806342966c681461022657806370a0823114610242578063715018a61461027257806379cc67901461027c57610137565b806306fdde031461013c578063095ea7b31461015a57806318160ddd1461018a57806323b872dd146101a8578063313ce567146101d8575b600080fd5b6101446103fc565b6040516101519190611943565b60405180910390f35b610174600480360381019061016f919061171b565b61048e565b6040516101819190611928565b60405180910390f35b6101926104ac565b60405161019f9190611a65565b60405180910390f35b6101c260048036038101906101bd91906116cc565b6104b6565b6040516101cf9190611928565b60405180910390f35b6101e061058f565b6040516101ed9190611a80565b60405180910390f35b610210600480360381019061020b919061171b565b6105a6565b60405161021d9190611928565b60405180910390f35b610240600480360381019061023b9190611757565b610659565b005b61025c60048036038101906102579190611667565b61066d565b6040516102699190611a65565b60405180910390f35b61027a6106b6565b005b6102966004803603810190610291919061171b565b61073e565b005b6102b260048036038101906102ad9190611667565b6107a0565b005b6102bc610877565b005b6102c6610910565b6040516102d3919061190d565b60405180910390f35b6102e4610939565b6040516102f19190611943565b60405180910390f35b610314600480360381019061030f919061171b565b6109cb565b6040516103219190611928565b60405180910390f35b610344600480360381019061033f919061171b565b610a98565b6040516103519190611928565b60405180910390f35b610374600480360381019061036f9190611667565b610ab6565b005b610390600480360381019061038b9190611667565b610b8d565b60405161039d9190611928565b60405180910390f35b6103c060048036038101906103bb9190611690565b610be3565b6040516103cd9190611a65565b60405180910390f35b6103f060048036038101906103eb9190611667565b610c6a565b005b6103fa610d62565b005b60606004805461040b90611bc9565b80601f016020809104026020016040519081016040528092919081815260200182805461043790611bc9565b80156104845780601f1061045957610100808354040283529160200191610484565b820191906000526020600020905b81548152906001019060200180831161046757829003601f168201915b5050505050905090565b60006104a261049b610dfb565b8484610e03565b6001905092915050565b6000600354905090565b60006104c3848484610fce565b610584846104cf610dfb565b61057f85604051806060016040528060288152602001611f0d60289139600260008b73ffffffffffffffffffffffffffffffffffffffff1673ffffffffffffffffffffffffffffffffffffffff1681526020019081526020016000206000610535610dfb565b73ffffffffffffffffffffffffffffffffffffffff1673ffffffffffffffffffffffffffffffffffffffff168152602001908152602001600020546113549092919063ffffffff16565b610e03565b600190509392505050565b6000600660009054906101000a900460ff16905090565b600061064f6105b3610dfb565b8461064a85600260006105c4610dfb565b73ffffffffffffffffffffffffffffffffffffffff1673ffffffffffffffffffffffffffffffffffffffff16815260200190815260200160002060008973ffffffffffffffffffffffffffffffffffffffff1673ffffffffffffffffffffffffffffffffffffffff168152602001908152602001600020546113a990919063ffffffff16565b610e03565b6001905092915050565b61066a610664610dfb565b826113bf565b50565b6000600160008373ffffffffffffffffffffffffffffffffffffffff1673ffffffffffffffffffffffffffffffffffffffff168152602001908152602001600020549050919050565b6106be610dfb565b73ffffffffffffffffffffffffffffffffffffffff166106dc610910565b73ffffffffffffffffffffffffffffffffffffffff1614610732576040517f08c379a0000000000000000000000000000000000000000000000000000000008152600401610729906119c5565b60405180910390fd5b61073c6000611563565b565b600061077d82604051806060016040528060248152602001611f356024913961076e86610769610dfb565b610be3565b6113549092919063ffffffff16565b90506107918361078b610dfb565b83610e03565b61079b83836113bf565b505050565b6107a8610dfb565b73ffffffffffffffffffffffffffffffffffffffff166107c6610910565b73ffffffffffffffffffffffffffffffffffffffff161461081c576040517f08c379a0000000000000000000000000000000000000000000000000000000008152600401610813906119c5565b60405180910390fd5b6001600760008373ffffffffffffffffffffffffffffffffffffffff1673ffffffffffffffffffffffffffffffffffffffff16815260200190815260200160002060006101000a81548160ff02191690831515021790555050565b61087f610dfb565b73ffffffffffffffffffffffffffffffffffffffff1661089d610910565b73ffffffffffffffffffffffffffffffffffffffff16146108f3576040517f08c379a00000000000000000000000000000000000000000000000000000000081526004016108ea906119c5565b60405180910390fd5b6000600860006101000a81548160ff021916908315150217905550565b60008060009054906101000a900473ffffffffffffffffffffffffffffffffffffffff16905090565b60606005805461094890611bc9565b80601f016020809104026020016040519081016040528092919081815260200182805461097490611bc9565b80156109c15780601f10610996576101008083540402835291602001916109c1565b820191906000526020600020905b8154815290600101906020018083116109a457829003601f168201915b5050505050905090565b6000610a8e6109d8610dfb565b84610a8985604051806060016040528060258152602001611f596025913960026000610a02610dfb565b73ffffffffffffffffffffffffffffffffffffffff1673ffffffffffffffffffffffffffffffffffffffff16815260200190815260200160002060008a73ffffffffffffffffffffffffffffffffffffffff1673ffffffffffffffffffffffffffffffffffffffff168152602001908152602001600020546113549092919063ffffffff16565b610e03565b6001905092915050565b6000610aac610aa5610dfb565b8484610fce565b6001905092915050565b610abe610dfb565b73ffffffffffffffffffffffffffffffffffffffff16610adc610910565b73ffffffffffffffffffffffffffffffffffffffff1614610b32576040517f08c379a0000000000000000000000000000000000000000000000000000000008152600401610b29906119c5565b60405180910390fd5b6000600760008373ffffffffffffffffffffffffffffffffffffffff1673ffffffffffffffffffffffffffffffffffffffff16815260200190815260200160002060006101000a81548160ff02191690831515021790555050565b6000600760008373ffffffffffffffffffffffffffffffffffffffff1673ffffffffffffffffffffffffffffffffffffffff16815260200190815260200160002060009054906101000a900460ff169050919050565b6000600260008473ffffffffffffffffffffffffffffffffffffffff1673ffffffffffffffffffffffffffffffffffffffff16815260200190815260200160002060008373ffffffffffffffffffffffffffffffffffffffff1673ffffffffffffffffffffffffffffffffffffffff16815260200190815260200160002054905092915050565b610c72610dfb565b73ffffffffffffffffffffffffffffffffffffffff16610c90610910565b73ffffffffffffffffffffffffffffffffffffffff1614610ce6576040517f08c379a0000000000000000000000000000000000000000000000000000000008152600401610cdd906119c5565b60405180910390fd5b600073ffffffffffffffffffffffffffffffffffffffff168173ffffffffffffffffffffffffffffffffffffffff161415610d56576040517f08c379a0000000000000000000000000000000000000000000000000000000008152600401610d4d90611985565b60405180910390fd5b610d5f81611563565b50565b610d6a610dfb565b73ffffffffffffffffffffffffffffffffffffffff16610d88610910565b73ffffffffffffffffffffffffffffffffffffffff1614610dde576040517f08c379a0000000000000000000000000000000000000000000000000000000008152600401610dd5906119c5565b60405180910390fd5b6001600860006101000a81548160ff021916908315150217905550565b600033905090565b600073ffffffffffffffffffffffffffffffffffffffff168373ffffffffffffffffffffffffffffffffffffffff161415610e73576040517f08c379a0000000000000000000000000000000000000000000000000000000008152600401610e6a90611a25565b60405180910390fd5b600073ffffffffffffffffffffffffffffffffffffffff168273ffffffffffffffffffffffffffffffffffffffff161415610ee3576040517f08c379a0000000000000000000000000000000000000000000000000000000008152600401610eda906119a5565b60405180910390fd5b80600260008573ffffffffffffffffffffffffffffffffffffffff1673ffffffffffffffffffffffffffffffffffffffff16815260200190815260200160002060008473ffffffffffffffffffffffffffffffffffffffff1673ffffffffffffffffffffffffffffffffffffffff168152602001908152602001600020819055508173ffffffffffffffffffffffffffffffffffffffff168373ffffffffffffffffffffffffffffffffffffffff167f8c5be1e5ebec7d5bd14f71427d1e84f3dd0314c0f7b2291e5b200ac8c7c3b92583604051610fc19190611a65565b60405180910390a3505050565b600073ffffffffffffffffffffffffffffffffffffffff168373ffffffffffffffffffffffffffffffffffffffff16141561103e576040517f08c379a000000000000000000000000000000000000000000000000000000000815260040161103590611a05565b60405180910390fd5b600073ffffffffffffffffffffffffffffffffffffffff168273ffffffffffffffffffffffffffffffffffffffff1614156110ae576040517f08c379a00000000000000000000000000000000000000000000000000000000081526004016110a590611965565b60405180910390fd5b600860009054906101000a900460ff1615806111135750600760008473ffffffffffffffffffffffffffffffffffffffff1673ffffffffffffffffffffffffffffffffffffffff16815260200190815260200160002060009054906101000a900460ff165b806111675750600760008373ffffffffffffffffffffffffffffffffffffffff1673ffffffffffffffffffffffffffffffffffffffff16815260200190815260200160002060009054906101000a900460ff165b6111a6576040517f08c379a000000000000000000000000000000000000000000000000000000000815260040161119d90611a45565b60405180910390fd5b61121281604051806060016040528060268152602001611ee760269139600160008773ffffffffffffffffffffffffffffffffffffffff1673ffffffffffffffffffffffffffffffffffffffff168152602001908152602001600020546113549092919063ffffffff16565b600160008573ffffffffffffffffffffffffffffffffffffffff1673ffffffffffffffffffffffffffffffffffffffff168152602001908152602001600020819055506112a781600160008573ffffffffffffffffffffffffffffffffffffffff1673ffffffffffffffffffffffffffffffffffffffff168152602001908152602001600020546113a990919063ffffffff16565b600160008473ffffffffffffffffffffffffffffffffffffffff1673ffffffffffffffffffffffffffffffffffffffff168152602001908152602001600020819055508173ffffffffffffffffffffffffffffffffffffffff168373ffffffffffffffffffffffffffffffffffffffff167fddf252ad1be2c89b69c2b068fc378daa952ba7f163c4a11628f55a4df523b3ef836040516113479190611a65565b60405180910390a3505050565b600083831115829061139c576040517f08c379a00000000000000000000000000000000000000000000000000000000081526004016113939190611943565b60405180910390fd5b5082840390509392505050565b600081836113b79190611ab7565b905092915050565b600073ffffffffffffffffffffffffffffffffffffffff168273ffffffffffffffffffffffffffffffffffffffff16141561142f576040517f08c379a0000000000000000000000000000000000000000000000000000000008152600401611426906119e5565b60405180910390fd5b61149b81604051806060016040528060228152602001611ec560229139600160008673ffffffffffffffffffffffffffffffffffffffff1673ffffffffffffffffffffffffffffffffffffffff168152602001908152602001600020546113549092919063ffffffff16565b600160008473ffffffffffffffffffffffffffffffffffffffff1673ffffffffffffffffffffffffffffffffffffffff168152602001908152602001600020819055506114f38160035461162790919063ffffffff16565b600381905550600073ffffffffffffffffffffffffffffffffffffffff168273ffffffffffffffffffffffffffffffffffffffff167fddf252ad1be2c89b69c2b068fc378daa952ba7f163c4a11628f55a4df523b3ef836040516115579190611a65565b60405180910390a35050565b60008060009054906101000a900473ffffffffffffffffffffffffffffffffffffffff169050816000806101000a81548173ffffffffffffffffffffffffffffffffffffffff021916908373ffffffffffffffffffffffffffffffffffffffff1602179055508173ffffffffffffffffffffffffffffffffffffffff168173ffffffffffffffffffffffffffffffffffffffff167f8be0079c531659141344cd1fd0a4f28419497f9722a3daafe3b4186f6b6457e060405160405180910390a35050565b600081836116359190611b0d565b905092915050565b60008135905061164c81611e96565b92915050565b60008135905061166181611ead565b92915050565b60006020828403121561167957600080fd5b60006116878482850161163d565b91505092915050565b600080604083850312156116a357600080fd5b60006116b18582860161163d565b92505060206116c28582860161163d565b9150509250929050565b6000806000606084860312156116e157600080fd5b60006116ef8682870161163d565b93505060206117008682870161163d565b925050604061171186828701611652565b9150509250925092565b6000806040838503121561172e57600080fd5b600061173c8582860161163d565b925050602061174d85828601611652565b9150509250929050565b60006020828403121561176957600080fd5b600061177784828501611652565b91505092915050565b61178981611b41565b82525050565b61179881611b53565b82525050565b60006117a982611a9b565b6117b38185611aa6565b93506117c3818560208601611b96565b6117cc81611c59565b840191505092915050565b60006117e4602383611aa6565b91506117ef82611c6a565b604082019050919050565b6000611807602683611aa6565b915061181282611cb9565b604082019050919050565b600061182a602283611aa6565b915061183582611d08565b604082019050919050565b600061184d602083611aa6565b915061185882611d57565b602082019050919050565b6000611870602183611aa6565b915061187b82611d80565b604082019050919050565b6000611893602583611aa6565b915061189e82611dcf565b604082019050919050565b60006118b6602483611aa6565b91506118c182611e1e565b604082019050919050565b60006118d9601683611aa6565b91506118e482611e6d565b602082019050919050565b6118f881611b7f565b82525050565b61190781611b89565b82525050565b60006020820190506119226000830184611780565b92915050565b600060208201905061193d600083018461178f565b92915050565b6000602082019050818103600083015261195d818461179e565b905092915050565b6000602082019050818103600083015261197e816117d7565b9050919050565b6000602082019050818103600083015261199e816117fa565b9050919050565b600060208201905081810360008301526119be8161181d565b9050919050565b600060208201905081810360008301526119de81611840565b9050919050565b600060208201905081810360008301526119fe81611863565b9050919050565b60006020820190508181036000830152611a1e81611886565b9050919050565b60006020820190508181036000830152611a3e816118a9565b9050919050565b60006020820190508181036000830152611a5e816118cc565b9050919050565b6000602082019050611a7a60008301846118ef565b92915050565b6000602082019050611a9560008301846118fe565b92915050565b600081519050919050565b600082825260208201905092915050565b6000611ac282611b7f565b9150611acd83611b7f565b9250827fffffffffffffffffffffffffffffffffffffffffffffffffffffffffffffffff03821115611b0257611b01611bfb565b5b828201905092915050565b6000611b1882611b7f565b9150611b2383611b7f565b925082821015611b3657611b35611bfb565b5b828203905092915050565b6000611b4c82611b5f565b9050919050565b60008115159050919050565b600073ffffffffffffffffffffffffffffffffffffffff82169050919050565b6000819050919050565b600060ff82169050919050565b60005b83811015611bb4578082015181840152602081019050611b99565b83811115611bc3576000848401525b50505050565b60006002820490506001821680611be157607f821691505b60208210811415611bf557611bf4611c2a565b5b50919050565b7f4e487b7100000000000000000000000000000000000000000000000000000000600052601160045260246000fd5b7f4e487b7100000000000000000000000000000000000000000000000000000000600052602260045260246000fd5b6000601f19601f8301169050919050565b7f45524332303a207472616e7366657220746f20746865207a65726f206164647260008201527f6573730000000000000000000000000000000000000000000000000000000000602082015250565b7f4f776e61626c653a206e6577206f776e657220697320746865207a65726f206160008201527f6464726573730000000000000000000000000000000000000000000000000000602082015250565b7f45524332303a20617070726f766520746f20746865207a65726f20616464726560008201527f7373000000000000000000000000000000000000000000000000000000000000602082015250565b7f4f776e61626c653a2063616c6c6572206973206e6f7420746865206f776e6572600082015250565b7f45524332303a206275726e2066726f6d20746865207a65726f2061646472657360008201527f7300000000000000000000000000000000000000000000000000000000000000602082015250565b7f45524332303a207472616e736665722066726f6d20746865207a65726f20616460008201527f6472657373000000000000000000000000000000000000000000000000000000602082015250565b7f45524332303a20617070726f76652066726f6d20746865207a65726f2061646460008201527f7265737300000000000000000000000000000000000000000000000000000000602082015250565b7f45524332303a204e6f742072656c656173652079657400000000000000000000600082015250565b611e9f81611b41565b8114611eaa57600080fd5b50565b611eb681611b7f565b8114611ec157600080fd5b5056fe45524332303a206275726e20616d6f756e7420657863656564732062616c616e636545524332303a207472616e7366657220616d6f756e7420657863656564732062616c616e636545524332303a207472616e7366657220616d6f756e74206578636565647320616c6c6f77616e636545524332303a206275726e20616d6f756e74206578636565647320616c6c6f77616e636545524332303a2064656372656173656420616c6c6f77616e63652062656c6f77207a65726fa26469706673582212208a10d72d64820dd715d2a40a6a99206268d9ae9c63e29b421842c2ff293dd20864736f6c63430008040033",
  "linkReferences": {},
  "deployedLinkReferences": {}
}