{
  "_format": "hh-sol-artifact-1",
  "contractName": "BBTC",
  "sourceName": "contracts/BBTC.sol",
  "abi": [
    {
      "inputs": [],
      "stateMutability": "nonpayable",
      "type": "constructor"
    },
    {
      "anonymous": false,
      "inputs": [
        {
          "indexed": true,
          "internalType": "address",
          "name": "owner",
          "type": "address"
        },
        {
          "indexed": true,
          "internalType": "address",
          "name": "spender",
          "type": "address"
        },
        {
          "indexed": false,
          "internalType": "uint256",
          "name": "value",
          "type": "uint256"
        }
      ],
      "name": "Approval",
      "type": "event"
    },
    {
      "anonymous": false,
      "inputs": [
        {
          "indexed": true,
          "internalType": "address",
          "name": "from",
          "type": "address"
        },
        {
          "indexed": true,
          "internalType": "address",
          "name": "to",
          "type": "address"
        },
        {
          "indexed": false,
          "internalType": "uint256",
          "name": "value",
          "type": "uint256"
        }
      ],
      "name": "Transfer",
      "type": "event"
    },
    {
      "inputs": [
        {
          "internalType": "address",
          "name": "owner",
          "type": "address"
        },
        {
          "internalType": "address",
          "name": "spender",
          "type": "address"
        }
      ],
      "name": "allowance",
      "outputs": [
        {
          "internalType": "uint256",
          "name": "",
          "type": "uint256"
        }
      ],
      "stateMutability": "view",
      "type": "function"
    },
    {
      "inputs": [
        {
          "internalType": "address",
          "name": "spender",
          "type": "address"
        },
        {
          "internalType": "uint256",
          "name": "amount",
          "type": "uint256"
        }
      ],
      "name": "approve",
      "outputs": [
        {
          "internalType": "bool",
          "name": "",
          "type": "bool"
        }
      ],
      "stateMutability": "nonpayable",
      "type": "function"
    },
    {
      "inputs": [
        {
          "internalType": "address",
          "name": "account",
          "type": "address"
        }
      ],
      "name": "balanceOf",
      "outputs": [
        {
          "internalType": "uint256",
          "name": "",
          "type": "uint256"
        }
      ],
      "stateMutability": "view",
      "type": "function"
    },
    {
      "inputs": [],
      "name": "decimals",
      "outputs": [
        {
          "internalType": "uint8",
          "name": "",
          "type": "uint8"
        }
      ],
      "stateMutability": "view",
      "type": "function"
    },
    {
      "inputs": [
        {
          "internalType": "address",
          "name": "spender",
          "type": "address"
        },
        {
          "internalType": "uint256",
          "name": "subtractedValue",
          "type": "uint256"
        }
      ],
      "name": "decreaseAllowance",
      "outputs": [
        {
          "internalType": "bool",
          "name": "",
          "type": "bool"
        }
      ],
      "stateMutability": "nonpayable",
      "type": "function"
    },
    {
      "inputs": [
        {
          "internalType": "address",
          "name": "spender",
          "type": "address"
        },
        {
          "internalType": "uint256",
          "name": "addedValue",
          "type": "uint256"
        }
      ],
      "name": "increaseAllowance",
      "outputs": [
        {
          "internalType": "bool",
          "name": "",
          "type": "bool"
        }
      ],
      "stateMutability": "nonpayable",
      "type": "function"
    },
    {
      "inputs": [],
      "name": "isOwner",
      "outputs": [
        {
          "internalType": "bool",
          "name": "",
          "type": "bool"
        }
      ],
      "stateMutability": "view",
      "type": "function"
    },
    {
      "inputs": [
        {
          "internalType": "address",
          "name": "account",
          "type": "address"
        },
        {
          "internalType": "uint256",
          "name": "amount",
          "type": "uint256"
        }
      ],
      "name": "mint",
      "outputs": [],
      "stateMutability": "nonpayable",
      "type": "function"
    },
    {
      "inputs": [],
      "name": "name",
      "outputs": [
        {
          "internalType": "string",
          "name": "",
          "type": "string"
        }
      ],
      "stateMutability": "view",
      "type": "function"
    },
    {
      "inputs": [],
      "name": "symbol",
      "outputs": [
        {
          "internalType": "string",
          "name": "",
          "type": "string"
        }
      ],
      "stateMutability": "view",
      "type": "function"
    },
    {
      "inputs": [],
      "name": "totalSupply",
      "outputs": [
        {
          "internalType": "uint256",
          "name": "",
          "type": "uint256"
        }
      ],
      "stateMutability": "view",
      "type": "function"
    },
    {
      "inputs": [
        {
          "internalType": "address",
          "name": "to",
          "type": "address"
        },
        {
          "internalType": "uint256",
          "name": "amount",
          "type": "uint256"
        }
      ],
      "name": "transfer",
      "outputs": [
        {
          "internalType": "bool",
          "name": "",
          "type": "bool"
        }
      ],
      "stateMutability": "nonpayable",
      "type": "function"
    },
    {
      "inputs": [
        {
          "internalType": "address",
          "name": "from",
          "type": "address"
        },
        {
          "internalType": "address",
          "name": "to",
          "type": "address"
        },
        {
          "internalType": "uint256",
          "name": "amount",
          "type": "uint256"
        }
      ],
      "name": "transferFrom",
      "outputs": [
        {
          "internalType": "bool",
          "name": "",
          "type": "bool"
        }
      ],
      "stateMutability": "nonpayable",
      "type": "function"
    }
  ],
  "bytecode": "0x60806040523480156200001157600080fd5b506040518060400160405280600a81526020017f4242544320546f6b656e000000000000000000000000000000000000000000008152506040518060400160405280600481526020017f4242544300000000000000000000000000000000000000000000000000000000815250816003908051906020019062000096929190620002b9565b508060049080519060200190620000af929190620002b9565b50505033600560006101000a81548173ffffffffffffffffffffffffffffffffffffffff021916908373ffffffffffffffffffffffffffffffffffffffff16021790555062000130600560009054906101000a900473ffffffffffffffffffffffffffffffffffffffff16683635c9adc5dea000006200013660201b60201c565b62000515565b600073ffffffffffffffffffffffffffffffffffffffff168273ffffffffffffffffffffffffffffffffffffffff161415620001a9576040517f08c379a0000000000000000000000000000000000000000000000000000000008152600401620001a090620003a1565b60405180910390fd5b620001bd60008383620002af60201b60201c565b8060026000828254620001d19190620003f1565b92505081905550806000808473ffffffffffffffffffffffffffffffffffffffff1673ffffffffffffffffffffffffffffffffffffffff1681526020019081526020016000206000828254620002289190620003f1565b925050819055508173ffffffffffffffffffffffffffffffffffffffff16600073ffffffffffffffffffffffffffffffffffffffff167fddf252ad1be2c89b69c2b068fc378daa952ba7f163c4a11628f55a4df523b3ef836040516200028f9190620003c3565b60405180910390a3620002ab60008383620002b460201b60201c565b5050565b505050565b505050565b828054620002c79062000458565b90600052602060002090601f016020900481019282620002eb576000855562000337565b82601f106200030657805160ff191683800117855562000337565b8280016001018555821562000337579182015b828111156200033657825182559160200191906001019062000319565b5b5090506200034691906200034a565b5090565b5b80821115620003655760008160009055506001016200034b565b5090565b600062000378601f83620003e0565b91506200038582620004ec565b602082019050919050565b6200039b816200044e565b82525050565b60006020820190508181036000830152620003bc8162000369565b9050919050565b6000602082019050620003da600083018462000390565b92915050565b600082825260208201905092915050565b6000620003fe826200044e565b91506200040b836200044e565b9250827fffffffffffffffffffffffffffffffffffffffffffffffffffffffffffffffff038211156200044357620004426200048e565b5b828201905092915050565b6000819050919050565b600060028204905060018216806200047157607f821691505b60208210811415620004885762000487620004bd565b5b50919050565b7f4e487b7100000000000000000000000000000000000000000000000000000000600052601160045260246000fd5b7f4e487b7100000000000000000000000000000000000000000000000000000000600052602260045260246000fd5b7f45524332303a206d696e7420746f20746865207a65726f206164647265737300600082015250565b6115be80620005256000396000f3fe608060405234801561001057600080fd5b50600436106100cf5760003560e01c806340c10f191161008c57806395d89b411161006657806395d89b4114610228578063a457c2d714610246578063a9059cbb14610276578063dd62ed3e146102a6576100cf565b806340c10f19146101be57806370a08231146101da5780638f32d59b1461020a576100cf565b806306fdde03146100d4578063095ea7b3146100f257806318160ddd1461012257806323b872dd14610140578063313ce56714610170578063395093511461018e575b600080fd5b6100dc6102d6565b6040516100e99190610fcc565b60405180910390f35b61010c60048036038101906101079190610dd4565b610368565b6040516101199190610fb1565b60405180910390f35b61012a61038b565b604051610137919061110e565b60405180910390f35b61015a60048036038101906101559190610d85565b610395565b6040516101679190610fb1565b60405180910390f35b6101786103c4565b6040516101859190611129565b60405180910390f35b6101a860048036038101906101a39190610dd4565b6103cd565b6040516101b59190610fb1565b60405180910390f35b6101d860048036038101906101d39190610dd4565b610404565b005b6101f460048036038101906101ef9190610d20565b610459565b604051610201919061110e565b60405180910390f35b6102126104a1565b60405161021f9190610fb1565b60405180910390f35b6102306104f9565b60405161023d9190610fcc565b60405180910390f35b610260600480360381019061025b9190610dd4565b61058b565b60405161026d9190610fb1565b60405180910390f35b610290600480360381019061028b9190610dd4565b610602565b60405161029d9190610fb1565b60405180910390f35b6102c060048036038101906102bb9190610d49565b610625565b6040516102cd919061110e565b60405180910390f35b6060600380546102e59061123e565b80601f01602080910402602001604051908101604052809291908181526020018280546103119061123e565b801561035e5780601f106103335761010080835404028352916020019161035e565b820191906000526020600020905b81548152906001019060200180831161034157829003601f168201915b5050505050905090565b6000806103736106ac565b90506103808185856106b4565b600191505092915050565b6000600254905090565b6000806103a06106ac565b90506103ad85828561087f565b6103b885858561090b565b60019150509392505050565b60006012905090565b6000806103d86106ac565b90506103f98185856103ea8589610625565b6103f49190611160565b6106b4565b600191505092915050565b61040c6104a1565b61044b576040517f08c379a00000000000000000000000000000000000000000000000000000000081526004016104429061102e565b60405180910390fd5b6104558282610b8c565b5050565b60008060008373ffffffffffffffffffffffffffffffffffffffff1673ffffffffffffffffffffffffffffffffffffffff168152602001908152602001600020549050919050565b6000600560009054906101000a900473ffffffffffffffffffffffffffffffffffffffff1673ffffffffffffffffffffffffffffffffffffffff163373ffffffffffffffffffffffffffffffffffffffff1614905090565b6060600480546105089061123e565b80601f01602080910402602001604051908101604052809291908181526020018280546105349061123e565b80156105815780601f1061055657610100808354040283529160200191610581565b820191906000526020600020905b81548152906001019060200180831161056457829003601f168201915b5050505050905090565b6000806105966106ac565b905060006105a48286610625565b9050838110156105e9576040517f08c379a00000000000000000000000000000000000000000000000000000000081526004016105e0906110ce565b60405180910390fd5b6105f682868684036106b4565b60019250505092915050565b60008061060d6106ac565b905061061a81858561090b565b600191505092915050565b6000600160008473ffffffffffffffffffffffffffffffffffffffff1673ffffffffffffffffffffffffffffffffffffffff16815260200190815260200160002060008373ffffffffffffffffffffffffffffffffffffffff1673ffffffffffffffffffffffffffffffffffffffff16815260200190815260200160002054905092915050565b600033905090565b600073ffffffffffffffffffffffffffffffffffffffff168373ffffffffffffffffffffffffffffffffffffffff161415610724576040517f08c379a000000000000000000000000000000000000000000000000000000000815260040161071b906110ae565b60405180910390fd5b600073ffffffffffffffffffffffffffffffffffffffff168273ffffffffffffffffffffffffffffffffffffffff161415610794576040517f08c379a000000000000000000000000000000000000000000000000000000000815260040161078b9061100e565b60405180910390fd5b80600160008573ffffffffffffffffffffffffffffffffffffffff1673ffffffffffffffffffffffffffffffffffffffff16815260200190815260200160002060008473ffffffffffffffffffffffffffffffffffffffff1673ffffffffffffffffffffffffffffffffffffffff168152602001908152602001600020819055508173ffffffffffffffffffffffffffffffffffffffff168373ffffffffffffffffffffffffffffffffffffffff167f8c5be1e5ebec7d5bd14f71427d1e84f3dd0314c0f7b2291e5b200ac8c7c3b92583604051610872919061110e565b60405180910390a3505050565b600061088b8484610625565b90507fffffffffffffffffffffffffffffffffffffffffffffffffffffffffffffffff811461090557818110156108f7576040517f08c379a00000000000000000000000000000000000000000000000000000000081526004016108ee9061104e565b60405180910390fd5b61090484848484036106b4565b5b50505050565b600073ffffffffffffffffffffffffffffffffffffffff168373ffffffffffffffffffffffffffffffffffffffff16141561097b576040517f08c379a00000000000000000000000000000000000000000000000000000000081526004016109729061108e565b60405180910390fd5b600073ffffffffffffffffffffffffffffffffffffffff168273ffffffffffffffffffffffffffffffffffffffff1614156109eb576040517f08c379a00000000000000000000000000000000000000000000000000000000081526004016109e290610fee565b60405180910390fd5b6109f6838383610cec565b60008060008573ffffffffffffffffffffffffffffffffffffffff1673ffffffffffffffffffffffffffffffffffffffff16815260200190815260200160002054905081811015610a7c576040517f08c379a0000000000000000000000000000000000000000000000000000000008152600401610a739061106e565b60405180910390fd5b8181036000808673ffffffffffffffffffffffffffffffffffffffff1673ffffffffffffffffffffffffffffffffffffffff16815260200190815260200160002081905550816000808573ffffffffffffffffffffffffffffffffffffffff1673ffffffffffffffffffffffffffffffffffffffff1681526020019081526020016000206000828254610b0f9190611160565b925050819055508273ffffffffffffffffffffffffffffffffffffffff168473ffffffffffffffffffffffffffffffffffffffff167fddf252ad1be2c89b69c2b068fc378daa952ba7f163c4a11628f55a4df523b3ef84604051610b73919061110e565b60405180910390a3610b86848484610cf1565b50505050565b600073ffffffffffffffffffffffffffffffffffffffff168273ffffffffffffffffffffffffffffffffffffffff161415610bfc576040517f08c379a0000000000000000000000000000000000000000000000000000000008152600401610bf3906110ee565b60405180910390fd5b610c0860008383610cec565b8060026000828254610c1a9190611160565b92505081905550806000808473ffffffffffffffffffffffffffffffffffffffff1673ffffffffffffffffffffffffffffffffffffffff1681526020019081526020016000206000828254610c6f9190611160565b925050819055508173ffffffffffffffffffffffffffffffffffffffff16600073ffffffffffffffffffffffffffffffffffffffff167fddf252ad1be2c89b69c2b068fc378daa952ba7f163c4a11628f55a4df523b3ef83604051610cd4919061110e565b60405180910390a3610ce860008383610cf1565b5050565b505050565b505050565b600081359050610d058161155a565b92915050565b600081359050610d1a81611571565b92915050565b600060208284031215610d3257600080fd5b6000610d4084828501610cf6565b91505092915050565b60008060408385031215610d5c57600080fd5b6000610d6a85828601610cf6565b9250506020610d7b85828601610cf6565b9150509250929050565b600080600060608486031215610d9a57600080fd5b6000610da886828701610cf6565b9350506020610db986828701610cf6565b9250506040610dca86828701610d0b565b9150509250925092565b60008060408385031215610de757600080fd5b6000610df585828601610cf6565b9250506020610e0685828601610d0b565b9150509250929050565b610e19816111c8565b82525050565b6000610e2a82611144565b610e34818561114f565b9350610e4481856020860161120b565b610e4d816112ce565b840191505092915050565b6000610e6560238361114f565b9150610e70826112df565b604082019050919050565b6000610e8860228361114f565b9150610e938261132e565b604082019050919050565b6000610eab60288361114f565b9150610eb68261137d565b604082019050919050565b6000610ece601d8361114f565b9150610ed9826113cc565b602082019050919050565b6000610ef160268361114f565b9150610efc826113f5565b604082019050919050565b6000610f1460258361114f565b9150610f1f82611444565b604082019050919050565b6000610f3760248361114f565b9150610f4282611493565b604082019050919050565b6000610f5a60258361114f565b9150610f65826114e2565b604082019050919050565b6000610f7d601f8361114f565b9150610f8882611531565b602082019050919050565b610f9c816111f4565b82525050565b610fab816111fe565b82525050565b6000602082019050610fc66000830184610e10565b92915050565b60006020820190508181036000830152610fe68184610e1f565b905092915050565b6000602082019050818103600083015261100781610e58565b9050919050565b6000602082019050818103600083015261102781610e7b565b9050919050565b6000602082019050818103600083015261104781610e9e565b9050919050565b6000602082019050818103600083015261106781610ec1565b9050919050565b6000602082019050818103600083015261108781610ee4565b9050919050565b600060208201905081810360008301526110a781610f07565b9050919050565b600060208201905081810360008301526110c781610f2a565b9050919050565b600060208201905081810360008301526110e781610f4d565b9050919050565b6000602082019050818103600083015261110781610f70565b9050919050565b60006020820190506111236000830184610f93565b92915050565b600060208201905061113e6000830184610fa2565b92915050565b600081519050919050565b600082825260208201905092915050565b600061116b826111f4565b9150611176836111f4565b9250827fffffffffffffffffffffffffffffffffffffffffffffffffffffffffffffffff038211156111ab576111aa611270565b5b828201905092915050565b60006111c1826111d4565b9050919050565b60008115159050919050565b600073ffffffffffffffffffffffffffffffffffffffff82169050919050565b6000819050919050565b600060ff82169050919050565b60005b8381101561122957808201518184015260208101905061120e565b83811115611238576000848401525b50505050565b6000600282049050600182168061125657607f821691505b6020821081141561126a5761126961129f565b5b50919050565b7f4e487b7100000000000000000000000000000000000000000000000000000000600052601160045260246000fd5b7f4e487b7100000000000000000000000000000000000000000000000000000000600052602260045260246000fd5b6000601f19601f8301169050919050565b7f45524332303a207472616e7366657220746f20746865207a65726f206164647260008201527f6573730000000000000000000000000000000000000000000000000000000000602082015250565b7f45524332303a20617070726f766520746f20746865207a65726f20616464726560008201527f7373000000000000000000000000000000000000000000000000000000000000602082015250565b7f46756e6374696f6e2061636365737369626c65206f6e6c79206279207468652060008201527f6f776e6572202121000000000000000000000000000000000000000000000000602082015250565b7f45524332303a20696e73756666696369656e7420616c6c6f77616e6365000000600082015250565b7f45524332303a207472616e7366657220616d6f756e742065786365656473206260008201527f616c616e63650000000000000000000000000000000000000000000000000000602082015250565b7f45524332303a207472616e736665722066726f6d20746865207a65726f20616460008201527f6472657373000000000000000000000000000000000000000000000000000000602082015250565b7f45524332303a20617070726f76652066726f6d20746865207a65726f2061646460008201527f7265737300000000000000000000000000000000000000000000000000000000602082015250565b7f45524332303a2064656372656173656420616c6c6f77616e63652062656c6f7760008201527f207a65726f000000000000000000000000000000000000000000000000000000602082015250565b7f45524332303a206d696e7420746f20746865207a65726f206164647265737300600082015250565b611563816111b6565b811461156e57600080fd5b50565b61157a816111f4565b811461158557600080fd5b5056fea2646970667358221220d8b3ca1f525ad2e4334eabc6dc5d22582d4eab6a0049d0b63414e5fb7473311c64736f6c63430008040033",
  "linkReferences": {},
  "deployedLinkReferences": {}
}